:020000040800F2
:1000000000100020C51C0008911C0008931C00086B
:1000100000000000000000000000000000000000E0
:10002000000000000000000000000000951C000817
:100030000000000000000000971C0008991C000848
:10004000151D000800000000151D0008151D000802
:10005000151D0008151D0008151D0008151D0008B8
:1000600000000000151D0008151D0008151D0008E2
:10007000151D0008151D0008151D000800000000D2
:10008000A11C00080000000000000000B11C0008D6
:1000900000000000151D0008151D0008151D0008B2
:1000A00000000000151D000800000000151D0008DC
:1000B0000000000000000000000000000000000040
:1000C00010B5064C2378002B07D1054B002B02D02E
:1000D000044800E000BF0123237010BD140000207D
:1000E00000000000481E0008044B10B5002B03D090
:1000F0000349044800E000BF10BDC04600000000F6
:1001000018000020481E00080023C25C0133002AAA
:10011000FBD1581E7047000002B4714649084900DF
:10012000095C49008E4402BC7047C0460022430867
:100130008B4274D303098B425FD3030A8B4244D3AF
:10014000030B8B4228D3030C8B420DD3FF220902F1
:1001500012BA030C8B4202D31212090265D0030BB0
:100160008B4219D300E0090AC30B8B4201D3CB03A6
:10017000C01A5241830B8B4201D38B03C01A5241E8
:10018000430B8B4201D34B03C01A5241030B8B42EA
:1001900001D30B03C01A5241C30A8B4201D3CB02D5
:1001A000C01A5241830A8B4201D38B02C01A5241BA
:1001B000430A8B4201D34B02C01A5241030A8B42BD
:1001C00001D30B02C01A5241CDD2C3098B4201D3D5
:1001D000CB01C01A524183098B4201D38B01C01A53
:1001E000524143098B4201D34B01C01A52410309CA
:1001F0008B4201D30B01C01A5241C3088B4201D379
:10020000CB00C01A524183088B4201D38B00C01A25
:10021000524143088B4201D34B00C01A5241411A4C
:1002200000D20146524110467047FFE701B5002059
:1002300000F006F802BDC0460029F7D076E7704707
:100240007047C04670B50500FA200D4B8000197844
:10025000FFF76CFF0B4B01001868FFF767FF00F01A
:1002600085F804000120002C09D1032D07D802389D
:100270002200290000F03EF82000034B1D6070BDF5
:100280000000002010000020040000201023064A77
:1002900010B5116800200B431360FFF7D3FF01F086
:1002A0005FFC002010BDC04600200240034A044B02
:1002B00011681B785B1813607047C0464800002027
:1002C00000000020014B18687047C046480000201D
:1002D00070B50400FFF7F6FF0500631C02D0044B65
:1002E0001B78E418FFF7EEFF401B8442FAD870BD7C
:1002F0000000002070B58901002812DB8308134A32
:1003000003249B009B18FF222040A0401400C0251E
:10031000844011408140AD005E59A643314359519C
:1003200070BD03240F23C0B203402040A040FC3422
:100330002500214085408140083B054A9B089B00E1
:100340009B18DA69AA431143D961E9E700E100E0AB
:1003500000ED00E0002805DB1F2318401E3B834012
:10036000014A13607047C04600E100E0094A431E9D
:10037000012093420DD8C021074A08485360036A00
:1003800009061B021B0A0B4303620020072390602F
:1003900013607047FFFFFF0010E000E000ED00E099
:1003A000F0B50B6887B0029300230191029ADA40FE
:1003B00001D107B0F0BD01229A4003920399029A3D
:1003C0000A40009200D18CE0019A10215268160078
:1003D0008E43022E0ED107251D40AD000139A940E4
:1003E000DC08A4000419276A8F4301990969A94010
:1003F0000F43276203245F00BC40E4430568013ECD
:100400002540AC4603251540BD4061460D430560BF
:10041000012E0FD801998668CD682640BD4035432E
:1004200085604668039915098E4301210D409D4062
:1004300035434560C56801992C408D688021BD40D9
:1004400049052C43C4600A424BD00121264C0326A7
:10045000A5691E400D43A561A4699D080C40059443
:10046000059C0F242149AD00B6006D18B4409021C1
:10047000AF68C905A743002488420CD01C49013449
:10048000884208D01B490134884204D01A490334F9
:10049000884200D1023CB44000993C430E00AC605D
:1004A000164CCD4327683E43D10301D43E002E4075
:1004B00026606768009E3E43910301D43E002E40B3
:1004C0006660A768009E3E43D10201D43E002E40E4
:1004D000A660E668009F3743920201D42E403700A1
:1004E000E760013362E7C0460010024000000140AF
:1004F0000004004800080048000C004800040140C7
:1005000000690840411E8841C0B27047002A01D0EE
:10051000816170478162FCE7F0B5040085B0002876
:1005200002D1012005B0F0BD0368DB072ED423689B
:100530009B077ED423681B0700D5BAE023685B07BE
:1005400000D5DDE02368DB061AD56269B44D0423CB
:10055000012A00D049E1696B02260B436B636B6B88
:100560001A436A63FFF7AEFE07006B6B334200D19C
:1005700034E1F8216A6BA3698A43DB0013436B63A0
:10058000236A002B00D057E10020CBE70C21A44DBB
:100590006A680A40042A06D06B680B40082B09D110
:1005A0006B68DB0306D52B689B03C0D56368002B03
:1005B000BDD1B6E76368012B13D180232A685B02A3
:1005C00013432B60FFF77EFE80260700B6022B68E0
:1005D0003342ACD1FFF776FEC01B6428F7D9032065
:1005E000A0E7002B15D12B688E4A802613402B6084
:1005F0002B688D4AB60213402B60FFF763FE07009D
:100600002B68334293D0FFF75DFEC01B6428F7D9F7
:10061000E5E7052B05D180232A68DB0213432B6015
:10062000CBE72B687F4A13402B602B687E4A134030
:10063000C7E70C227A4D6B68134206D06B681340F3
:10064000082B11D16B68DB030ED42B689B0703D5F5
:10065000E368012B00D064E7F8212A6823698A4304
:10066000DB0013432B6065E7E2680123002A0FD00B
:100670002A68022613432B60FFF724FE07002B682D
:100680003342E9D1FFF71EFEC01B0228F7D9A6E7C7
:100690002A6802269A432A60FFF714FE07002B6897
:1006A000334200D146E7FFF70DFEC01B0228F6D902
:1006B00095E7E26901235A4D002A10D06A6A0226A2
:1006C00013436B62FFF7FEFD07006B6A334200D0F5
:1006D00034E7FFF7F7FDC01B0228F6D97FE76A6A07
:1006E00002269A436A62FFF7EDFD07006B6A334208
:1006F00000D123E7FFF7E6FDC01B0228F6D96EE71D
:1007000080220021464D5205EB690091134208D129
:10071000EB691343EB61EB6913400393039B0123E4
:1007200000938027414E7F0033683B4206D0A36888
:10073000012B13D12A6A13432B6230E033683B4309
:100740003360FFF7BFFD019033683B42EFD1FFF705
:10075000B9FD019BC01A6428F6D940E70122002B9D
:1007600014D12B6A022793432B622B6A03329343E3
:100770002B62FFF7A7FD06002B6A3B4225D0FFF74F
:10078000A1FD2B4B801B9842F6D928E7052B0BD1F6
:10079000296A013B0B432B622B6A1A432A62FFF73B
:1007A00091FD022706000DE02B6A934304222B6281
:1007B0002B6A9343C0E7FFF785FD1D4B801B9842D2
:1007C00000D90CE72B6A3B42F5D0009B012B00D0EF
:1007D000B8E6EB69174A1340EB61B3E6FFF772FD29
:1007E000C01B022800D8C0E6F9E6053203D16A6BC7
:1007F0009A436A63BDE66A6B0226134301226B6368
:100800006B6B93436B63FFF75DFD07006B6B3342CC
:1008100000D1B5E6FFF756FDC01B0228F6D9DEE68B
:1008200000100240FFFFFEFFFFFFFBFF00700040D3
:1008300088130000FFFFFFEF0C20354A51681500B8
:100840000140082947D0334A022B32D12B68802639
:1008500013402B60FFF736FD0700B6042B683342C8
:1008600021D10F22EB6A9343E26A1343EB62616A80
:10087000A36A6A680B43284980240A4013436B60CB
:1008800080232A685B0413432B60FFF71BFD0600DF
:10089000A4042B68234200D076E6FFF713FD801BEB
:1008A0000228F6D99BE6FFF70DFDC01B0228D5D91B
:1008B00095E62B68802413402B60FFF703FD0600AC
:1008C000A4042B68234200D15EE6FFF7FBFC801BEB
:1008D0000228F6D983E61800012B00D122E68021F8
:1008E0005368656A4902D26A19400120A94200D0C2
:1008F00018E60F210A40E16A8A4200D012E6F02091
:1009000080030340A06A1B1A581E8341D8B209E62F
:1009100000100240FFFFFFFEFFFFC2FF70B5144C46
:1009200088B010222100684601F036FA210004AD9B
:1009300010221031280001F02FFA0C220D4E73689E
:100940001A40082A11D10F206A46990C0140545CC4
:10095000F26A0240A95CDB0305D50748FFF7E6FB16
:10096000604308B070BD0548FAE70348F9E7C046A0
:10097000601E00080010024000127A0000093D00CD
:10098000F7B505000F00002801D10120FEBD0122AE
:10099000374C236813408B421CD329688B0722D421
:1009A000CB072FD4012322681A40974251D32B68DA
:1009B000304C5B0754D4FFF7B1FF63682E4A1B0627
:1009C0001B0FD35CD8402D4B18600020FFF73AFC7A
:1009D0000020DBE7236893430B4323602368134025
:1009E0009942D2D1D9E7234A4B0704D5E023506876
:1009F000DB0003435360F02053688343A86803433C
:100A00005360CDE71B4E6A683368012A19D19B03F6
:100A1000BBD5032173688B4313437360FFF752FC0C
:100A200001900C2372681A406B689B009A42B9D0FF
:100A3000FFF748FC019BC01A114B9842F1D90320E3
:100A4000A4E7022A02D19B01E3D49EE79B07E0D4EE
:100A50009BE722689A43226022681A4295D1A6E752
:100A60006368084A1340EA6813436360A3E7C0461B
:100A700000200240001002404E1F0008100000201D
:100A800088130000FFF8FFFF044B054A5B685B0515
:100A90005B0FD35C034A1068D840704700100240D7
:100AA0005E1F000810000020F0B5036885B0050047
:100AB000DB0328D580220021374C5205E3690091E1
:100AC000134208D1E3691343E361E36913400393DD
:100AD000039B012300938027304E7F0033683B4205
:100AE00026D0C022236A920013402D4E32D1236AB1
:100AF0001E406B681E43009B2662012B03D1E369F5
:100B0000284A1340E3612A68D30706D50320224907
:100B10000B6B8343A86803430B630020930617D530
:100B200010211D4A136B8B43E9680B4313630FE0DD
:100B300033683B433360FFF7C5FB019033683B42AA
:100B4000CFD1FFF7BFFB019BC01A6428F6D9032061
:100B500005B0F0BD69680A409342C8D08023226A7C
:100B6000206A11005B0203432362236A0E4831406E
:100B7000034023622162D307B9D5FFF7A3FB070027
:100B80000222236A1342B2D1FFF79CFB074BC01B22
:100B90009842F5D9DBE7C0460010024000700040E3
:100BA000FFFCFFFFFFFFFFEFFFFFFEFF88130000CA
:100BB000012203680720D9681143D9609968014070
:100BC000062902D019680A431A600020704770474E
:100BD0007047704770470222036810B51969040016
:100BE00011420ED0D96811420BD0053A1A619B69A7
:100BF000043202779B0700D179E000F012FD002358
:100C00002377042223681969114210D0D968114250
:100C10000DD0093A1A61073222779A69C0239B00E6
:100C200020001A4269D000F0FCFC00232377082240
:100C30002368196911420ED0D96811420BD0113ABC
:100C40001A61DB690D32227720009B075BD000F030
:100C5000E8FC00232377102223681969114210D081
:100C6000D96811420DD0213A1A6119322277DA6916
:100C7000C0239B0020001A424BD000F0D2FC00237E
:100C80002377012223681969114207D0D9681142DC
:100C900004D0033A1A61200000F0C4FC80222368CB
:100CA0001969114208D0D968114205D0023AFF3AB9
:100CB0001A61200000F075FA402223681969114278
:100CC00007D0D968114204D0813A1A612000FFF799
:100CD00081FF202223681969114207D0D968114287
:100CE00004D0413A1A61200000F05AFA10BDFFF713
:100CF0006FFF2000FFF76DFF81E7FFF769FF20001E
:100D0000FFF767FF91E7FFF763FF2000FFF761FF41
:100D10009FE7FFF75DFF2000FFF75BFFAFE70000F5
:100D2000194A10B50368904202D0184CA04208D16D
:100D30007024A3434C68234390420BD0134CA04231
:100D400008D0134CA04205D0124CA04202D0124C45
:100D5000A04203D1114C2340CC6823438024A343F9
:100D60004C69234303608B68C3620B6883629042C3
:100D700005D0084B984202D0074B984201D10B692D
:100D800003630123436110BD002C014000040040B7
:100D9000002000400044014000480140FFFCFFFFEC
:100DA00070B504000120002C14D025003D352B78AF
:100DB000DBB2002B05D122003C321370200000F082
:100DC000E7FE022320682B70211DFFF7A9FF0123F6
:100DD00000202B7070BD70B504000120002C14D0D1
:100DE00025003D352B78DBB2002B05D122003C32AB
:100DF00013702000FFF7EBFE022320682B70211DEB
:100E0000FFF78EFF012300202B7070BDF0B5012687
:100E1000046A0E4FB44304628469056AB84202D082
:100E20000B4FB84202D10326B44300E03200224304
:100E3000F0241B01A2430F342340F53CA54321407D
:100E400029431A4382610162F0BDC046002C014073
:100E500000040040F7B50D00010002233C310E787C
:100E600004001800012E1AD0013808704B70002AB7
:100E700016D1EB686A6829682068FFF7C7FF0C2164
:100E800023689A698A439A619A69A9680A439A61B0
:100E90002300012200203D333C341A702070FEBD37
:100EA0002968236801916E68E868042A1ED110271A
:100EB0001A6A3049BA431A629F6936020F403E43AC
:100EC0002D4F00073E40000C3043A02601991A6ABE
:100ED0000901B24331401143986119629A69274967
:100EE0000A409A61AA6899691202CFE7AD68082A98
:100EF00020D103211A6A224F00013A401A62DF69A9
:100F00001A6A8F433E43F027BE430F3738400643EB
:100F10001C4801990240A020090200010140114330
:100F2000DE6119620C21DA698A43DA61DA691543F4
:100F3000DD61ADE71A6A144F0E493A401A62DF6963
:100F400036020F403E430C4F00073E40000C1A6A29
:100F500030430E4E01993240A0260903360231403B
:100F60001143D8611962DA6904492D020A40DA6135
:100F7000DA69DCE7FFFCFFFFFF0FFFFFFFF3FFFF76
:100F8000FFFEFFFFFFF5FFFFFFEFFFFFFF5FFFFF2C
:100F900030B58468034D0A431B022C40134323439E
:100FA000836030BDFF00FFFFF8B5050002233C352C
:100FB0002A7804001800012A16D02600012720688C
:100FC0003D362F7033708368404A134083600B684E
:100FD000402B65D014D8102B0BD006D8002B08D08E
:100FE0000123002033702870F8BD202B01D0302B56
:100FF000F6D1702281689143693A13430B431AE09A
:10100000602B35D019D8502BEAD14A68CB68016AD9
:10101000046A1B01BC43F02704628469BC43234378
:101020000A24A1430A4383610262702283689343C6
:101030001A00572313438360D2E7702B0DD0802210
:1010400092019342CCD1CB684A688968FFF7A0FF30
:1010500080232268DB01916807E0CB684A688968D1
:10106000FFF796FF7723226891680B439360B7E7F9
:1010700010244B68CA68016A154FA1430162846954
:1010800012033C402243A024016A82617022A143E2
:101090001B010B430362836893431A006723C9E76C
:1010A0004A68CB68016A046A1B01BC43F0270462EA
:1010B0008469BC4323430A24A1430A438361026237
:1010C0007022836893431A004723B3E78800FFFF29
:1010D000FF0FFFFF1F2310B5012419408C408A40E9
:1010E000036AA3430362036A1A43026210BD10B588
:1010F00004000C290ED80800FFF70EF8070C0C0CA2
:101100001C0C0C0C200C0C0C240002232268D06850
:101110000343D36001222068FFF7DCFF0721236827
:101120009A680A40062A03D0012219680A431A6005
:10113000002010BD22680423D068E9E72268082354
:10114000D068E5E722681023D068E1E770B50400B5
:1011500002223C34257803001000012D1BD01D0015
:1011600070261B6801383D3520702A7058689A68CF
:10117000B0430E68304358600748834202D00748A6
:10118000834204D18020496882430A439A60012344
:1011900000202B70207070BD002C01400004004026
:1011A0007047704770B504002569A36802682B4337
:1011B0006569C1692B4310683E4D0B4328400343CA
:1011C000136053683C48256A0340E068034353605A
:1011D000A36990682B43394D284003439360032251
:1011E000374B384D1B6B1340374AD05C80231B02B2
:1011F000994235D1082826D8FEF78EFF05250B2504
:101200001D2525252000FFF73FFC636840005B0893
:1012100002E0636858082D4BC0186168FEF786FF2E
:1012200083B200201A00103AAA420FD901200023ED
:101230002366636670BDFFF771FBE6E763685808D5
:1012400080235B02E8E701200023EBE70F2219006F
:1012500091430A001B0721685B0F1343CB60E6E74D
:10126000082823D8FEF758FF05220A221A22222234
:101270001D00FFF709FC63685B0802E0636858081B
:10128000134BC0186168FEF751FF83B200201A00AB
:10129000103AAA42CAD82268D360C8E7FFF73EFBDB
:1012A000E9E76368580880231B02EAE7012000236E
:1012B000EDE7C046F369FFFFFFCFFFFFFFF4FFFF3D
:1012C00000100240EFFF0000481F00080024F40057
:1012D00000127A00436A30B5DA0706D50168284C57
:1012E0004A682240846A22434A609A0706D5016808
:1012F000244C4A682240C46A22434A605A0706D5F1
:101300000168214C4A682240046B22434A601A0754
:1013100006D501681D4C4A682240446B22434A604E
:10132000DA0606D501681A4C8A682240846B22438B
:101330008A609A0606D50168164C8A682240C46BFA
:1013400022438A605A0610D50168134D4A68046C1E
:101350002A4022434A6080225203944205D14A68BF
:101360000E4C2240446C22434A601B0606D502689C
:101370000B4953680B40816C0B43536030BDC04632
:10138000FFFFFDFFFFFFFEFFFFFFFBFFFF7FFFFFF4
:10139000FFEFFFFFFFDFFFFFFFFFEFFFFFFF9FFFFD
:1013A000FFFFF7FFF7B5802704000E00150001933B
:1013B0003F012268D36933409B1B59424B41AB42EA
:1013C00001D000201CE0089B0133F3D0FEF77AFF28
:1013D000019B089AC01A2368824201D3002A10D1C7
:1013E0001A6813490A401A609A68A331FF318A4388
:1013F0009A6020236367A36700230320703423705F
:10140000FEBD04211A680A42D3D0DA693A42D0D02C
:101410001F621A6806490A401A609A68A331FF31B0
:101420008A439A6020236367A367E367E4E7C046C3
:101430005FFEFFFFF0B587B00593436F04000D001A
:1014400017000220202B49D10138002946D0002A5C
:1014500044D08023A2685B019A4204D12369002B07
:1014600001D101423AD1230070331A780220012AB7
:1014700034D0012200261A702123E6676367FEF745
:1014800021FF230050331F80023303931F808023EA
:10149000A26804905B019A4204D12369B34201D14E
:1014A0002E001D00230052331A88059B92B2009330
:1014B000049B002A0AD140212000FFF773FF002877
:1014C0000BD1202370346360207007E0002280215C
:1014D0002000FFF767FF002802D0032007B0F0BD0F
:1014E0002268002D0BD133880236DB05DB0D138516
:1014F000039B039A1B88013B9BB21380D2E72B7896
:1015000001351385F4E7000073B500260400C667B3
:10151000FEF7D8FE236805001B681B0715D4236857
:101520001B685B070AD580210E4B00220093C9037C
:101530002B002000FFF736FF002811D120230020C8
:101540006367A367703420700BE08021054B320085
:101550000093890303002000FFF724FF0028DED05A
:10156000032076BDFFFFFF0110B5041E01D101204D
:1015700010BD436F002B04D102007032137000F0D5
:1015800053FB2423012122686367136820008B43E7
:101590001360FFF707FE0128E9D0636A002B02D031
:1015A0002000FFF797FE236807495A6820000A4089
:1015B00008215A609A688A439A60012219680A438E
:1015C0001A60FFF7A1FFD3E7FFF7FFFF30B5102444
:1015D00095B03022002108A800F0E7FB220000218E
:1015E000684600F0E2FB2200002104A800F0DDFBC9
:1015F000012502230C9408A8002408930B95FEF7FC
:101600008BFF072321006846009301940294039402
:10161000FFF7B6F904A804950694FFF745FA15B04C
:1016200030BD7047F8B502685C4B9A4247D19020B4
:101630008021C005FEF764FF594C402120609020B6
:10164000C005FEF75DFF574B0500186001285AD111
:10165000554F3E68012E44D12468002C30D1902093
:1016600032000421C005FEF751FF9020220008211E
:10167000C005FEF74BFF902032000221C005FEF7A7
:1016800045FF902022000421C005FEF73FFF220005
:1016900031004648FEF73AFF902032003100C00585
:1016A000FEF734FF0223424A3B60424B1E60136840
:1016B000002B04D1404916600B6801330B60F8BD64
:1016C000012CFCD13A4A1368002BF8D13A490B6837
:1016D00001330B6039490B6801330B600123136040
:1016E000EDE7022EEBD12368002B09D1304A1368B5
:1016F000002BE4D1304910600B6801330B60DEE74A
:10170000012BDCD1DEE70028D9D1274F3E68012E1E
:101710000ED12368002BD2D0012BD0D124490A68E6
:10172000002ACCD125480B60026801320260C6E76E
:10173000022EC4D12468002CC1D0012CBFD12200BC
:1017400031001A48FEF7E2FE90202A002100C00571
:10175000FEF7DCFE220021001448FEF7D7FE2A0027
:1017600031001248FEF7D2FE90202A003100C00559
:10177000FEF7CCFE902022000821C005FEF7C6FE31
:101780000C4B0B4A1E6013683C60002B97D10B4931
:1017900014600B6801330B6091E7C04600200040E5
:1017A00040000020440000200C00002000140048ED
:1017B0003800002008000020300000203400002005
:1017C00010B5040001282CD1020002212C48FEF79C
:1017D0009DFE902000222100C005FEF797FE2948BB
:1017E000FEF776FD220021002548FEF78FFE00223D
:1017F00002212348FEF78AFE2248FEF769FD902069
:1018000000220221C005FEF781FE9020220008215F
:10181000C005FEF77BFE02221B4B1C601B4B1A60AF
:1018200010BD0228FCD1902001220421C005FEF742
:101830006DFE902000220821C005FEF767FE1148CA
:10184000FEF746FD902001222100C005FEF75EFE56
:10185000902000220421C005FEF758FE0948FEF73B
:1018600037FD002201210648FEF750FE012290209C
:101870001100C005FEF74AFE034B01221C60CDE7B4
:1018800000140048B80B00000C00002008000020E5
:10189000F0B5B9B0FEF7FAFCFFF798FE142200216C
:1018A0001FA800F082FA8021994FC9037A699948EC
:1018B0000A437A617B6900240B4080210293029BDA
:1018C0007A6989020A437A617B6900220B4003939B
:1018D0000321039BFEF71AFE902000220F21C00572
:1018E000FEF714FE012603231FA98A481F932096A2
:1018F00021942294FEF754FD90200F231FA9C005C8
:101900001F93209621942294FEF74AFD90202023D5
:101910001FA9C0051F93209621942294FEF740FD35
:101920001022210006A800F040FA0822210004A895
:1019300000F03BFA102221001FA800F036FA764D85
:10194000764B28002B601F236B60754BAC60EB60FF
:101950002C61AC61FFF724FA802306A95B01280003
:101960000693FFF721FB2800FFF735FA04A92800AA
:1019700004940594FFF7EAFB022322001F931FA99A
:101980000D332800229320962194FFF763FA042256
:101990001FA92800FFF75EFA6248634B846003606A
:1019A00096239B0143600C23C460436104618461FE
:1019B000C46104624462FFF7D7FD7B6922003343B0
:1019C0007B617B692100334004930A20049BFEF76E
:1019D00091FC0A20FEF7BEFC544F554B38003B608B
:1019E000544BBC607B6063233C61FB60BC61FFF7D0
:1019F000D7F921002800FFF77AFB04212800FFF720
:101A000076FB3800FFF7D4F8320031004148FEF78A
:101A10007DFD220002213F48FEF778FD9020220044
:101A20003100C005FEF772FD902022000221C005A2
:101A3000FEF76CFD902022000421C005FEF766FD34
:101A40009020012532000821C005FEF75FFD6D42A0
:101A50000194394B1868394B1B68834204D0FFF757
:101A6000AFFE374B019A1A60FA200001FEF730FCF6
:101A7000344F354B0A223900186800F089F9334B8E
:101A8000334E18680A22310000F082F9314C2622C8
:101A9000210006A800F080F9362002ABC0183E22D3
:101AA000002100F082F92100262264311FA800F0F5
:101AB00073F99A2002AB3E22C018002100F075F99C
:101AC000390006A800F079F931001FA800F075F977
:101AD000214C06A8210000F070F921001FA800F099
:101AE0006CF906A8FEF710FB0E4C82B22B0006A97B
:101AF0002000FFF79FFC1FA8FEF706FB2B0082B219
:101B00001FA92000FFF796FC144B019A1A60A0E76A
:101B100000100240001400484C0000200004004067
:101B200060EA00001401002000380140A0010020FC
:101B300000200040FF7C0000080000200C00002076
:101B40003C000020990100203000002034000020DB
:101B500094010020801E00084C1F0008380000205F
:101B600001200A4B82B099690143996180219A69E9
:101B7000490502400092009ADA690A43DA61DB699A
:101B80000B400193019B02B07047C0460010024019
:101B900010B5040088B01422002103A800F005F954
:101BA00023681E4A934225D102201D4BD969014367
:101BB000D9618021DA69890202400092009A5A694B
:101BC00090200A435A615B69C0050B400193019B59
:101BD000C02303A90393BF3B05930793FEF7E0FBE4
:101BE000002210201100FEF785FB1020FEF7B2FB4B
:101BF00008B010BD0B4A9342FAD18020084A400039
:101C0000D1690143D161D369002203400293ED38C9
:101C10001100029BFEF76EFB1320E7E70004004073
:101C2000001002400020004010B5040088B01422CB
:101C3000002103A800F0B9F8134B22689A4220D182
:101C40008020124BC00199690143996180219A69F2
:101C5000890202400192019A5A6990200A435A610E
:101C60005B69C0050B400293029BC023DB0003931A
:101C7000022304930133069303A9023B0793FEF763
:101C80008FFB08B010BDC046003801400010024074
:101C90007047FEE77047704710B5FEF707FB10BDB1
:101CA00010B50248FEF797FF10BDC0464C0000205B
:101CB00010B50248FEF78FFF10BDC046A0010020FE
:101CC000704700000D4885460D480E490E4A002316
:101CD00002E0D458C4500433C4188C42F9D30B4AE0
:101CE0000B4C002301E013600432A242FBD3FFF748
:101CF000E7FF00F011F8FFF7CBFDFEE70010002032
:101D00000000002014000020941F00081400002090
:101D1000E0010020FEE7000070B500260C4D0D4CE0
:101D2000641BA410A64209D1002600F08DF80A4DCC
:101D30000A4C641BA410A64205D170BDB300EB5839
:101D400098470136EEE7B300EB5898470136F2E7C3
:101D50008C1F00088C1F00088C1F0008901F0008B3
:101D6000931E10B50C00222B04D900231C000B700D
:101D7000200010BD0A2A09D1002807DA2D230B7094
:101D800001214042611800F025F8F1E70021F9E750
:101D900010B5FFF7E5FF10BD002310B59A4200D142
:101DA00010BDCC5CC4540133F8E7030082189342A1
:101DB00000D1704719700133F9E7020010B51378AC
:101DC000002B05D1CC5CD4540133002CFAD110BDCA
:101DD0000132F4E7F0B517008FB0252206000D00A0
:101DE00004A81849FFF7D8FF04AABB1E00240392D9
:101DF000222B05D92C70250028000FB0F0BD019CC6
:101E0000631C0193EB1800933000013B39000293EF
:101E1000FEF712FA039B029A5B5C300013703900E4
:101E2000FEF784F9061EEAD1009B18702B005A1B9E
:101E30009442E1DD1A78295D19702A550133013C7D
:101E4000F5E7C046661F0008F8B5C046F8BC08BCF8
:101E50009E467047F8B5C046F8BC08BC9E46704721
:101E600002030405060708090A0B0C0D0E0F1010DB
:101E70000102030405060708090A0B0C0D0E0F10DA
:101E80004EC3BA6D65726F20646520617475616CB4
:101E9000697A61C3A7C3B5657320646F2073696EE7
:101EA000616C20313A0000000000000000000000DA
:101EB0000000000000000000000000000000000022
:101EC0000000000000000000000000000000000012
:101ED0000000000000000000000000000000000002
:101EE000000000004EC3BA6D65726F20646520610A
:101EF0007475616C697A61C3A7C3B5657320646F3B
:101F00002073696E616C20323A000000000000000E
:101F100000000000000000000000000000000000C1
:101F200000000000000000000000000000000000B1
:101F300000000000000000000000000000000000A1
:101F40000000000000000000000408020A00000079
:101F50000000000000000102030406070809000059
:101F6000000001020304303132333435363738395A
:101F70006162636465666768696A6B6C6D6E6F70D9
:0C1F80007172737475767778797A0000BE
:041F8C00E900000860
:041F9000C100000884
:101F94000100000004000000020000000100000035
:041FA40000127A00AD
:0400000508001CC50E
:00000001FF
